:100000000C942B090C9447090C9447090C9447094C
:100010000C9447090C9447090C9447090C94470920
:100020000C9447090C9447090C94940F0C94F00F0E
:100030000C9447090C9447090C9447090C94470900
:100040000C9447090C9447090C9447090C944709F0
:100050000C9447090C9447090C9447090C944709E0
:100060000C9447090C9447090C9447090C944709D0
:100070000C9447090C9447090C9447090C944709C0
:100080000C9447090C9447090C9447090C944709B0
:100090000C9447090C9447090C9447090C944709A0
:1000A0000C9447090C9447090C9447090000E50E8D
:1000B000E50EE50EE50EE50EE50E250F250FE50E26
:1000C000E50EE50EE50E0000E50EE50EE50EE50E8B
:1000D000E50E0000000000000000E50EE50EE50E54
:1000E000E50EE50EE50EE50EE50EE50EE50EE50E78
:1000F000E50EE50EE50EE50EE50EE50EE50EE50E68
:10010000E50EE50EE50EE50EE50EE50E000000003D
:10011000E50EE50EE50EE50EE50EE50EE50EE50E47
:10012000E50EE50EE50EE50E0000E50EE50EE50E2A
:10013000E50EE50EE50EE50EE50EE50EE50EE50E27
:10014000E50EE50EE50EE50EE50EE50EE50EE50E17
:10015000E50EE50E000000000000000000000000B9
:10016000000000000000000000000000000000008F
:10017000000000000000000000000000000000007F
:10018000000000000000000000000000000000006F
:10019000000000000000000000000000000000005F
:1001A000000000000000000000000000000000004F
:1001B000000000000000000000000000000000003F
:1001C000000000000000000000000000000000002F
:1001D000000000000000000000000000000000001F
:1001E0000000E50EE50EE50EE50EE50EE50EE50E6A
:1001F000E50EE50EE50EE50EE50E00000000000040
:1002000000000000000000000000000000000000EE
:10021000E50E0000000000000000000000000000EB
:100220000000000000000000000000000000E50EDB
:10023000E50E0000000000000000000000000000CB
:10024000000000000000E50EE50EE50EE50E0000E2
:10025000000000000000000000000000000000009E
:100260000000E50EE50EE50EE50E000000000000C2
:100270000000000000000000000000000000E50E8B
:10028000E50EE50EE50E0000000000000000000095
:1002900000000000000000000000E50EE50EE50E85
:1002A000E50E00000000000000000000000000005B
:1002B000000000000000000000000000000000003E
:1002C000000000000000000000000000000000002E
:1002D000000000000000000000000000000000001E
:1002E000000000000000000000000000000000000E
:100730000000000000000000000000000000E50EC6
:10074000E50EE50EE50EE50EE50E250F250FE50E8F
:10075000E50EE50EE50E0000E50EE50EE50EE50EF4
:10076000E50E0000000000000000E50EE50EE50EBD
:10077000E50EE50EE50EE50EE50EE50EE50EE50EE1
:10078000E50EE50EE50EE50EE50EE50EE50EE50ED1
:10079000E50EE50EE50EE50EE50EE50E00000000A7
:1007A000E50EE50EE50EE50EE50EE50EE50EE50EB1
:1007B000E50EE50EE50EE50EED0EE50EE50EE50E99
:1007C000E50EE50EE50EE50EE50EE50EE50EE50E91
:1007D000E50EE50EE50EE50EE50EE50EE50EE50E81
:1007E000E50EE50E00000000000000000000000023
:1007F00000000000000000000000000000000000F9
:1008000000000000000000000000000000000000E8
:1008100000000000000000000000000000000000D8
:1008200000000000000000000000000000000000C8
:1008300000000000000000000000000000000000B8
:1008400000000000000000000000000000000000A8
:100850000000000000000000000000000000000098
:10086000EF0E00000000000000000000000000008B
:100870000000E50EE50EE50EE50EE50EE50EE50ED3
:10088000E50EE50EE50EE50EE50E000000000000A9
:100890000000000000000000000000000000000058
:1008A000E50E000000000000000000000000000055
:1008B0000000000000000000000000000000E50E45
:1008C000E50E000000000000000000000000000035
:1008D000000000000000E50EE50EE50EE50E00004C
:1008E0000000000000000000000000000000000008
:1008F0000000E50EE50EE50EE50E0000000000002C
:100900000000000000000000000000000000E50EF4
:10091000E50EE50EE50E0000F30E000000000000FD
:10092000000000000000F10E0000E50EE50EE50EEF
:10093000E50E0000000000000000000000000000C4
:1009400000000000000000000000000000000000A7
:100950000000000000000000000000000000000097
:100960000000000000000000000000000000000087
:100970000000000000000000000000000000000077
:100DC000000000000000000000000000004DE32CC7
:100DD0004AE0E200034B2CE34E003511E22F3000D5
:100DE0000000005251504F34E11D1B061905052D1E
:100DF0001110363738E5E0041607090A00000B0D1C
:100E00000E0F33282B141A081517012E1C180C125C
:100E10001331291E1F202122294123242526272A78
:100E200000000000000000000000000000000000C2
:100E300000000000000000000000000000000000B2
:100E400000000000000000000000000000000000A2
:100E50000000000000000000000000000000010091
:100E6000000000000000003A3B3C3D3E44453F404E
:100E7000414243000000000000000000000062004A
:100E800000000000000000000000000000632800D7
:100E9000000000000000000000595A5B280000001C
:100EA000000000000000005C5D5E570000000000D4
:100EB00000000000005F60615700000000000000BB
:100EC00000020053545556000000000000000000CE
:100ED0000000000000000000000000000000000012
:100EE0000000000000000000000000000000000002
:100EF00000000000000000000000000000000000F2
:100F000000000000000000000000000000000000E1
:1011100000000000000100003C121200020000A9C3
:10112000113B00210000BB110900220000FD113F0E
:1011300000210100D4110900220100E4111900036B
:101140000000A51104010309048B1118020309040E
:1011500053113636034500720067006F0044006F7C
:1011600000780020006500720067006F006E006F5D
:10117000006D006900630020006B0065007900626B
:10118000006F006100720064000000180375006EBB
:101190000073007000650063006900660069006507
:1011A00000640000000403090409023B000201007E
:1011B000C0320904000001030101000921110100EE
:1011C00001223F000705810308000A09040100010C
:1011D0000300000009211101000122190007058206
:1011E0000308000A050C0901A10185031501269CCD
:1011F0000219012A9C02751095018100C0050109A0
:1012000006A10175019508050719E029E7150025D4
:10121000018102950175088103950575010508197D
:10122000012905910295017503910395067508152D
:101230000025680507190029688100C01201000215
:1012400000000020501D286000010102000101C1C2
:101250000601C106000011241FBECFEFDAE0DEBF99
:10126000CDBF11E0A0E0B1E0E8E3F3E202C00590F9
:101270000D92A832B107D9F722E0A8E2B1E001C08F
:101280001D92A93DB207E1F7C0D00C949A110C94BD
:101290000000E0912801E81768F02E2F281B330B7F
:1012A000C901F901EE0FFF1FE80FF91FED56FD4FC1
:1012B0008081089580E00895E0912801E81768F0A2
:1012C0002E2F281B330BC901F901EE0FFF1FE80F6A
:1012D000F91FED56FD4F8281089580E00895982F03
:1012E000E1E0F1E041E050E0842F2191211117C0AD
:1012F000FA01E050FF4F21E02083E0912801EF5FE9
:10130000E09328012E2F30E0F901EE0FFF1FE20FCE
:10131000F31FED56FD4F90834183628308954F5F25
:101320005F4F4431510501F780E008952091280175
:1013300091E0291708F40895492F50E0FA01EE0FC3
:10134000FF1FE40FF51FED56FD4F3181381323C009
:1013500083E0989FF0011124ED56FD4F9217A0F005
:10136000822F90E0FC01EE0FFF1FE80FF91FED56F2
:10137000FD4F10821182E32FF0E0E050FF4F10820A
:101380002150209328010895838180838481818363
:101390009F5F3396E3CF9F5FCCCF80919102E09126
:1013A000920224E5E29FF00111249F014EE0849F08
:1013B000200D311D1124E091D402E20FF32FF11D15
:1013C000EE0FFF1F8091D1028823D9F0E45CF84F23
:1013D00085919491009711F0FC0109958091280165
:1013E000282F30E0F901EE0FFF1FE20FF31FED563B
:1013F000FD4F9281923041F490913C02992321F06B
:1014000095CFE455FF4FE4CF0895E9D08CE090E00C
:10141000909389008093880090938B0080938A003A
:1014200090938D0080938C00259A269A279A2AD52E
:1014300040D58823E9F38FE790E09093890080936B
:1014400088002FE732E440E1215030404040E1F78E
:1014500000C0000090938B0080938A00EFE7F2E4D5
:1014600020E1E150F0402040E1F700C000009093FF
:101470008D0080938C003FE742E4E0E13150404032
:10148000E040E1F700C00000259826982798909347
:1014900089008093880090938B0080938A009093BA
:1014A0008D0080938C000EE08091140190911501C5
:1014B00020911601309117013093150120931401EA
:1014C000909317018093160193D010923B02809164
:1014D0003B028630E0F0F0D40AD78FE19EE401971A
:1014E000F1F700C000008091310280FF72C0259AA0
:1014F0008091310281FF6FC0269A8091310282FF74
:101500006CC0279A8091310280913102CDCF109228
:10151000D202D090D20210913B02FDE0FD1520F4E2
:101520001F5F10933B02D3CFED2CF12CE0911601FD
:10153000F0911701019FC0011124E80FF91FEE0D72
:10154000FF1D20812093D102E0911401F09115013B
:10155000E80FF91FEE0DFF1D30813093CF022317E6
:1015600021F1EC01C35CDD4F222329F180E091DE03
:1015700080939202CE0DDF1D88831092D0021093CB
:101580009102D092D4021092D30207DF80913B02E5
:101590002091D202089FC0011124875D9E4F820FC7
:1015A000911D2091D002FC0120838091D2028F5F97
:1015B0008093D202AECFCE0DDF1D28812093920200
:1015C000875D9E4FFC01EE0DFF1D80818093D00250
:1015D000D6CF25988DCF269890CF279893CFB7D088
:1015E000811104C015D0811182E0089581E0089531
:1015F000CF93DF93EC0174D1811106C0CE0133D0BB
:10160000882319F082E001C081E0DF91CF91089535
:10161000CF9334D380E451D3C82F811120C080E010
:101620004CD380E84AD38FEF48D33FD327D380E40D
:1016300044D3C82F811113C08CE03FD380E83DD341
:101640008FEF3BD332D31AD380E437D3C82F811125
:1016500006C084E132D38FEF30D38FEF2ED325D362
:101660008C2FCF910895BF92CF92DF92EF92FF928D
:101670000F931F93CF93DF931F92CDB7DEB78C01EB
:10168000C7DFB82E8823D9F0F801C8018C5A9F4FC4
:1016900010821182128213821482158216823E9663
:1016A0008E179F07A9F78B2D0F90DF91CF911F9178
:1016B0000F91FF90EF90DF90CF90BF900895F12CA5
:1016C000E12CCC24C394D12CD9D280E4F6D282E18F
:1016D000F4D2C6010E2C01C0880F0A94EAF7809557
:1016E000ECD2E3D2CBD280E4E8D283E1E6D2C6D218
:1016F00081E4E3D2CE010196FED2D7D2498150E0F7
:10170000F801EE0DFF1D25E030E0CA01022E02C0F7
:10171000959587950A94E2F78095909581708083DE
:10172000215031093E962F3F320779F78FEFE81AA3
:10173000F80A87E0E816F10409F0C6CF9FD280E4EA
:10174000BCD282E1BAD28FEFB8D2AFD2ACCFE1E651
:10175000F0E080E88083108256985E9824982C9858
:1017600025982698279889EA8093800089E08093BD
:1017700081007BD23F9885E08A95F1F70000579869
:1017800085E08A95F1F70000549885E08A95F1F795
:101790000000559885E08A95F1F700006E9885E085
:1017A0008A95F1F70000479A85E08A95F1F70000E5
:1017B0005F9A85E08A95F1F700005C9A85E08A954A
:1017C000F1F700005D9A85E08A95F1F70000769ABE
:1017D00085E08A95F1F70000879885E08A95F1F712
:1017E0000000869885E08A95F1F70000859885E0ED
:1017F0008A95F1F70000849885E08A95F1F700005A
:10180000819885E08A95F1F70000809885E08A95B7
:10181000F1F70000209885E08A95F1F70000219803
:1018200085E08A95F1F70000229885E08A95F1F726
:101830000000239885E08A95F1F70000529885E032
:101840008A95F1F70000539885E08A95F1F700003A
:101850003E9885E08A95F1F700008F9A85E08A9599
:10186000F1F700008E9A85E08A95F1F700008D9AD5
:1018700085E08A95F1F700008C9A85E08A95F1F76A
:101880000000899A85E08A95F1F70000889A85E042
:101890008A95F1F70000289885E08A95F1F7000015
:1018A000299885E08A95F1F700002A9885E08A95C5
:1018B000F1F700002B9885E08A95F1F700005A981F
:1018C00085E08A95F1F700005B9885E08A95F1F74D
:1018D0000000469885E08A95F1F7000080E00895C1
:1018E000CF93DF93FC01209A85E08A95F1F7000001
:1018F0008FB18095881F8827881F87839FB181E0DB
:1019000096FB992790F99827958B9FB195FB99277E
:1019100090F9982793A39FB192959170982791ABD6
:101920009FB196959170982797AF9FB1DF01AA5B01
:10193000BF4F9095917017969C931797209895E0BC
:101940009A95F1F70000219A95E09A95F1F7000039
:101950009FB19095991F9927991F90879FB196FBEA
:10196000992790F99827968B9FB195FB992790F925
:10197000982794A39FB192959170982792AB9FB1AD
:10198000EF01C05CDF4F96959170982798839FB1C7
:101990009095917018969C931897219895E09A9538
:1019A000F1F70000229A95E09A95F1F700009FB1B7
:1019B0009095991F9927991F91879FB196FB992719
:1019C00090F99827978B9FB195FB992790F99827C5
:1019D00095A39FB192959170982793AB9FB1219653
:1019E00096959170982798839FB1909591701996CC
:1019F0009C931997229895E09A95F1F70000239A05
:101A000095E09A95F1F700009FB19095991F99275D
:101A1000991F92879FB196FB992790F99827908FED
:101A20009FB195FB992790F9982796A39FB192951E
:101A30009170982794AB9FB12196969591709827B5
:101A400098839FB1909591701A969C931A972398BA
:101A500095E09A95F1F70000529A95E09A95F1F782
:101A600000009FB19095991F9927991F93879FB167
:101A700096FB992790F99827918F9FB195FB99270D
:101A800090F9982797A39FB192959170982795AB5D
:101A90009FB1219696959170982798839FB19095C4
:101AA00091701B969C931B97529895E09A95F1F72D
:101AB0000000539A95E09A95F1F700009FB1909538
:101AC000991F9927991F94879FB196FB992790F9A1
:101AD0009827928F9FB195FB992790F9982790A707
:101AE0009FB192959170982796AB9FB1219696954C
:101AF0009170982798839FB1909591701C969C93B4
:101B00001C97539895E09A95F1F700003E9A95E05E
:101B10009A95F1F700009FB19095991F9927991F09
:101B200095879FB196FB992790F99827938F9FB13E
:101B300095FB992790F9982791A79FB1929591705D
:101B4000982797AB9FB1EB5BFF4F969591708927D4
:101B500080838FB1809581701D968C933E9885E02F
:101B60008A95F1F7000080E0DF91CF910895662318
:101B700009F45FC0E0E2E60FE83008F040C0F0E0B2
:101B8000EB53F24F90913902CFC3CD0DD50DDB0D44
:101B9000E10DE70DED0DF30DF90D882321F09160B6
:101BA0009093390208959E7FFBCF882311F09260B5
:101BB000F7CF9D7FF5CF882311F09460F1CF9B7F05
:101BC000EFCF882311F09860EBCF977FE9CF882380
:101BD00011F09061E5CF9F7EE3CF882311F09062F2
:101BE000DFCF9F7DDDCF882311F09064D9CF9F7B1D
:101BF000D7CF882311F09068D3CF9F77D1CFE3E37D
:101C0000F2E030E020E09191882339F091110CC08E
:101C10002D5C3D4FF90160830895961305C02D5C3E
:101C20003D4FF901108208952F5F3F4F2630310557
:101C300051F70895E62FF0E0EE0FFF1FE65EFE4F2E
:101C400020813181882329F03093D6022093D50258
:101C500008958091D5029091D6028217930721F4BE
:101C60001092D6021092D5020895E9EBF0E080813F
:101C70008C7F808388E48093B800089584EA809301
:101C8000BC008091BC0087FFFCCF8091B900887FA9
:101C9000883049F08091B900887F803121F08091AF
:101CA000B900887F089580E0089584E98093BC009E
:101CB0008091BC0084FDFCCF08958093BB0084E834
:101CC0008093BC008091BC0087FFFCCF8091B9005D
:101CD000887F883171F08091B900887F883249F01F
:101CE0008091B900887F803421F08091B900887F8D
:101CF000089580E0089524EC2093BC002091BC005E
:101D000027FFFCCF2091BB00FC0120838091B9000C
:101D1000887F803521F08091B900887F089580E028
:101D20000895CF93DF93C82FD0E0CB5DDD4F88813E
:101D3000882311F0FBDA1882DF91CF910895CF93B9
:101D4000DF93D82F80919102E091920224E5E29FE7
:101D5000F00111249F014EE0849F200D311D1124BC
:101D6000E091D402E20FF32FF11DE453F24FC4913E
:101D70008D2FD7DF80E0A0DA8150823018F480E028
:101D800088DAD4DA60E08C2FAADAED2FF0E0EB5D90
:101D9000FD4F8083DF91CF91089580919102E09172
:101DA000920294E5E99FB00111249EE0899F600DA5
:101DB000711D1124E091D402E60FF72FF11DE453B9
:101DC000F24F64918091D102D2CE8091D0028111E4
:101DD00003C081E080933C02E0CF81E0B0CF81E09E
:101DE000A0CF82E09ECFF89481E08093E00080E273
:101DF0008093D800E9ECF0E010828FE19EE4019737
:101E0000F1F700C000001DBA109268001CBC10BEA3
:101E10001FBA10927A0010926E0010926F0010920A
:101E20007100109272001082ECEBF0E0108214B896
:101E300017B81AB81DB810BA108215B818B81BB860
:101E40001EB811BA0C94003F089580919102E09160
:101E5000920294E5E99FB00111249EE0899F600DF4
:101E6000711D1124E091D402E60FF72FF11DE45308
:101E7000F24F64918091D102DDCE8091E80080FF25
:101E8000FCCF089581E08093D70080EA8093D8004A
:101E900082E189BD09B400FEFDCF80E98093D800BE
:101EA0001092E00010923A028CE08093E200789465
:101EB000089580913A02089580913A02811102C0FA
:101EC0008FEF08958FB7F89491E09093E900909187
:101ED000E4009E5C21E03091E80035FD0EC08FBF2C
:101EE00080913A02882361F38091E400891741F3DD
:101EF0008FB7F8942093E900EECF90913902909338
:101F0000F1001092F100E3E3F2E091919093F1007F
:101F100092E0E933F907C9F79AE39093E800109249
:101F200032028FBF80E008951F920F920FB60F927A
:101F300011248F939F93EF93FF938091E100109270
:101F4000E10083FF0FC01092E90091E09093EB0055
:101F50001092EC0092E29093ED0098E09093F000E4
:101F600010923A0282FF33C080913A02882379F1BD
:101F700080911801882359F1809130028F5F8093FE
:101F80003002837021F581E08093E9008091E800C0
:101F900085FF1DC0809132028F5F80933202909145
:101FA0001801891314C01092320280913902809373
:101FB000F1001092F100E3E3F2E081918093F100EF
:101FC00082E0E933F807C9F78AE38093E800FF91DC
:101FD000EF919F918F910F900FBE0F901F901895CA
:101FE0001F920F920FB60F921124EF92FF920F9350
:101FF0001F932F933F934F935F936F937F938F9391
:102000009F93AF93BF93CF93DF93EF93FF93109280
:10201000E9008091E80083FF75C0D091F100C09184
:10202000F1008091F1000091F100102F082F8091B4
:10203000F100E090F100FE2CE82E8091F1009091EB
:10204000F10022EF2093E800C63009F067C024E1D8
:1020500031E143E551E1F9016591749106171707E4
:1020600009F04AC0F901329665917491E616F706B7
:1020700009F042C0F901349645915491F901369620
:10208000E4918F3F910519F010F08FEF90E0E81781
:1020900008F48E2F3EEF9091E800292F2570D9F398
:1020A00092FD13C0982F813208F090E2FA01292F97
:1020B00021112EC0490F511D282F291B922F30931B
:1020C000E800211123C0803208F5FF91EF91DF91E4
:1020D000CF91BF91AF919F918F917F916F915F91C0
:1020E0004F913F912F911F910F91FF90EF900F9083
:1020F0000FBE0F901F901895295F3F4F421753074F
:1021000009F0A9CF81E28093EB00DFCF892FC3CF05
:1021100064916093F10021503196CACFC53041F4EB
:102120008EEF8093E800A9DE00680093E300CDCF36
:10213000C93049F5D1116AC000933A028EEF8093FD
:10214000E80021E08EE492E12093E900AC014F5FCA
:102150005F4FFC0134913093EB00332391F0FA018F
:1021600044914093EC003196E4910396E093ED00A6
:102170002F5F253049F78EE18093EA001092EA0044
:10218000A4CFCA01F5CFC83049F4D03809F03EC019
:1021900074DE80913A028093F10012C0C11114C024
:1021A0006CDED23849F4E092E900C091EB00C5FB47
:1021B000CC27C0F91092E900C093F1001092F10011
:1021C0008EEF8093E80081CF8C2F8D7F8130F1F4EA
:1021D000D230E1F4012B09F095CF2E2D2F778FEF20
:1021E000820F843008F08ECF8EEF8093E80020932A
:1021F000E900C33009F486CF89E18093EB0081E0E8
:1022000090E001C0880F2A95EAF7B6CFEF2809F0D1
:1022100079CFD13A09F5C13091F42FDE809139029E
:102220008093F1001092F100E3E3F2E089E392E0A1
:1022300021912093F1008E179F07D1F7C1CFC230B3
:1022400021F41BDE80911801A6CFC33009F05ACFCC
:1022500014DE809119019FCFD13209F053CFC930DC
:1022600061F48091E80082FFFCCF8091F1008093BF
:1022700031028BEF8093E800A3CFCA3029F410938A
:102280001801109232029CCFCB3009F03BCF009363
:10229000190196CF90913A02911102C08FEF0895E3
:1022A0009FB7F89422E02093E9002091E4002E5C8F
:1022B00032E04091E80045FD0EC09FBF90913A0288
:1022C000992361F39091E400921741F39FB7F8943A
:1022D0003093E900EECF8093F1006093F1007093AA
:1022E000F1008AE38093E8009FBF80E00895609149
:1022F000D5027091D6028091D7029091D8026817CA
:10230000790781F083E0C6DF082E000C990B009757
:1023100051F42091D5023091D6023093D802209307
:10232000D702089580E00895EE0FFF1F0590F49105
:08233000E02D0994F894FFCFA1
:102338000100000000000000000000000000000094
:10234800000000007D01D1017D01CD00B700B6007D
:08235800B500E200E900EA0013
:00000001FF
